:100000000C9462000C948A000C948A000C948A0070
:100010000C948A000C948A000C948A000C948A0038
:100020000C948A000C948A000C948A000C948A0028
:100030000C948A000C948A000C948A000C948A0018
:100040000C9495010C948A000C946B040C949D0400
:100050000C948A000C948A000C948A000C948A00F8
:100060000C948A000C948A00000000080002010031
:100070000003040700000000000000000102040863
:100080001020408001020408102001020408102002
:10009000040404040404040402020202020203032E
:1000A00003030303000000002300260029000000D2
:1000B0000000250028002B0000000000240027007D
:1000C0002A00CD0411241FBECFEFD8E0DEBFCDBF84
:1000D00011E0A0E0B1E0ECEEFBE002C005900D9273
:1000E000A031B107D9F721E0A0E1B1E001C01D9234
:1000F000A83BB207E1F710E0C4ECD0E004C02297BF
:10010000FE010E94F005C23CD107C9F70E9411050B
:100110000C94F4050C94000061E082E00E948E02D1
:1001200061E083E00E948E0261E084E00E948E0222
:1001300061E085E00E948E0261E086E00E948E020E
:1001400061E087E00E948E0260E08AE00E948E02F9
:1001500060E08BE00E948E0261E08DE00E948E02E2
:1001600026E040E855E260E070E08BE191E00C941D
:1001700009048AE00E94FD02809311014AE050E0E8
:10018000682F8BE191E00E94C405809111018130BC
:1001900009F060C061E086E00E94C70261E087E08C
:1001A0000E94C70261E082E00E94C70261E070E045
:1001B00080E090E00E94020260E082E00E94C702BC
:1001C00061E070E080E090E00E94020261E085E082
:1001D0000E94C70261E070E080E090E00E940202AD
:1001E00060E085E00E94C70261E070E080E090E09E
:1001F0000E94020261E083E00E94C70261E070E0B9
:1002000080E090E00E94020260E083E00E94C7026A
:1002100061E070E080E090E00E94020261E084E032
:100220000E94C70261E070E080E090E00E9402025C
:1002300060E084E00E94C70261E070E080E090E04E
:100240000E94020260E086E00E94C70260E087E050
:100250000E94C7028BE00E94FD0280931001813052
:1002600009F060C061E086E00E94C70261E087E0BB
:100270000E94C70261E084E00E94C70261E070E072
:1002800080E090E00E94020260E084E00E94C702E9
:1002900061E070E080E090E00E94020261E083E0B3
:1002A0000E94C70261E070E080E090E00E940202DC
:1002B00060E083E00E94C70261E070E080E090E0CF
:1002C0000E94020261E085E00E94C70261E070E0E6
:1002D00080E090E00E94020260E085E00E94C70298
:1002E00061E070E080E090E00E94020261E082E064
:1002F0000E94C70261E070E080E090E00E9402028C
:1003000060E082E00E94C70261E070E080E090E07F
:100310000E94020260E086E00E94C70260E087E07F
:100320000C94C70208950C94B9001F920F920FB657
:100330000F9211242F933F938F939F93AF93BF936B
:100340008091130190911401A0911501B0911601B3
:100350003091120123E0230F2D3720F40196A11DC7
:10036000B11D05C026E8230F0296A11DB11D2093E3
:1003700012018093130190931401A0931501B0937F
:1003800016018091170190911801A0911901B09167
:100390001A010196A11DB11D8093170190931801B8
:1003A000A0931901B0931A01BF91AF919F918F91C2
:1003B0003F912F910F900FBE0F901F9018953FB750
:1003C000F8948091170190911801A0911901B091B2
:1003D0001A0126B5A89B05C02F3F19F00196A11D53
:1003E000B11D3FBF6627782F892F9A2F620F711D8D
:1003F000811D911D42E0660F771F881F991F4A9546
:10040000D1F70895CF92DF92EF92FF92CF93DF93CF
:100410006B017C010E94DF01EB01C114D104E104F6
:10042000F10489F00E94CB050E94DF016C1B7D0B5B
:10043000683E734090F381E0C81AD108E108F108E2
:10044000C851DC4FEACFDF91CF91FF90EF90DF9062
:10045000CF900895789484B5826084BD84B581601E
:1004600084BD85B5826085BD85B5816085BDEEE6BC
:10047000F0E0808181608083E1E8F0E0108280819B
:1004800082608083808181608083E0E8F0E0808109
:1004900081608083E1EBF0E0808184608083E0EB29
:1004A000F0E0808181608083EAE7F0E08081846011
:1004B000808380818260808380818160808380816D
:1004C000806880831092C1000895833081F028F401
:1004D000813099F08230A1F008958730A9F08830FA
:1004E000B9F08430D1F4809180008F7D03C0809179
:1004F00080008F7780938000089584B58F7702C045
:1005000084B58F7D84BD08958091B0008F7703C03E
:100510008091B0008F7D8093B0000895CF93DF93DA
:1005200090E0FC01E458FF4F2491FC01E057FF4F9D
:100530008491882349F190E0880F991FFC01E854C9
:10054000FF4FA591B49182559F4FFC01C591D49165
:100550009FB7611108C0F8948C91209582238C93E9
:10056000888182230AC0623051F4F8948C91322F32
:10057000309583238C938881822B888304C0F894E0
:100580008C91822B8C939FBFDF91CF9108950F9315
:100590001F93CF93DF931F92CDB7DEB7282F30E0A4
:1005A000F901E859FF4F8491F901E458FF4F149184
:1005B000F901E057FF4F04910023C9F0882321F08F
:1005C00069830E9465026981E02FF0E0EE0FFF1F52
:1005D000E255FF4FA591B4919FB7F8948C916111AA
:1005E00003C01095812301C0812B8C939FBF0F9076
:1005F000DF91CF911F910F910895CF93DF93282F13
:1006000030E0F901E859FF4F8491F901E458FF4FB8
:10061000D491F901E057FF4FC491CC2391F081119F
:100620000E946502EC2FF0E0EE0FFF1FEC55FF4F2C
:10063000A591B4912C912D2381E090E021F480E0EC
:1006400002C080E090E0DF91CF910895FC01818DA0
:10065000228D90E0805C9F4F821B91098F739927B8
:100660000895FC01918D828D981731F0828DE80FED
:10067000F11D858D90E008958FEF9FEF0895FC01A7
:10068000918D828D981761F0828DDF01A80FB11DC9
:100690005D968C91928D9F5F9F73928F90E00895ED
:1006A0008FEF9FEF089583EC94E0892B49F080E071
:1006B00090E0892B29F00E94C30481110C94000062
:1006C0000895FC01848DDF01A80FB11DA35ABF4F0F
:1006D0002C91848D90E001968F739927848FA68941
:1006E000B7892C93A089B1898C9180648C93938D68
:1006F000848D981306C00288F389E02D80818F7D58
:1007000080830895CF93DF93EC01888D8823C9F00F
:10071000EA89FB89808185FD05C0A889B9898C910A
:1007200086FD0FC00FB607FCF5CF808185FFF2CFA5
:10073000A889B9898C9185FFEDCFCE010E94610314
:10074000E7CFDF91CF910895CF92DF92FF920F9381
:100750001F93CF93DF931F92CDB7DEB76C0181E07B
:10076000D60158968C9358975B969C915B975C96B4
:100770008C915C97981307C05096ED91FC9151971E
:10078000808185FD2EC0F601038D10E00F5F1F4FA5
:100790000F731127F02EF601848DF81211C00FB6D9
:1007A00007FCF9CFD6015096ED91FC9151978081CD
:1007B00085FFF1CFC60169830E9461036981EBCF98
:1007C000838DE80FF11DE35AFF4F6083D6015B96DE
:1007D0000C935B975296ED91FC91539780818062C8
:1007E0000CC0D6015696ED91FC91579760835096B8
:1007F000ED91FC91519780818064808381E090E04D
:100800000F90DF91CF911F910F91FF90DF90CF90CC
:100810000895BF92CF92DF92EF92FF92CF93DF9332
:10082000EC016A017B01B22EE889F98982E08083BC
:10083000411581EE580761057105A1F060E079E08E
:100840008DE390E0A70196010E94CC05215031096B
:10085000410951095695479537952795211580E10E
:10086000380798F0E889F989108260E874E88EE129
:1008700090E0A70196010E94CC0521503109410961
:1008800051095695479537952795EC85FD85308319
:10089000EE85FF852083188EEC89FD89B082EA8978
:1008A000FB89808180618083EA89FB8980818860FF
:1008B0008083EA89FB89808180688083EA89FB895B
:1008C00080818F7D8083DF91CF91FF90EF90DF90CB
:1008D000CF90BF9008951F920F920FB60F921124E0
:1008E0002F938F939F93EF93FF93E0912B01F091C0
:1008F0002C018081E0913101F091320182FD12C022
:100900009081809134018F5F8F7320913501821720
:1009100051F0E0913401F0E0E55EFE4F958F809359
:10092000340101C08081FF91EF919F918F912F91B0
:100930000F900FBE0F901F9018951F920F920FB639
:100940000F9211242F933F934F935F936F937F9355
:100950008F939F93AF93BF93EF93FF938BE191E0BE
:100960000E946103FF91EF91BF91AF919F918F9191
:100970007F916F915F914F913F912F910F900FBE9B
:100980000F901F9018958BE191E00E94260321E0C3
:10099000892B09F420E0822F089510921E011092F5
:1009A0001D0188EE93E0A0E0B0E080931F019093DA
:1009B0002001A0932101B093220184E091E0909363
:1009C0001C0180931B0185EC90E09093280180939B
:1009D000270184EC90E090932A018093290180EC18
:1009E00090E090932C0180932B0181EC90E0909308
:1009F0002E0180932D0182EC90E090933001809342
:100A00002F0186EC90E09093320180933101109297
:100A10003401109235011092360110923701089579
:100A200008950E942A020E9410050E948C00C3E5CE
:100A3000D3E00E9493012097E1F30E945303F9CF82
:100A4000CF92DF92EF92FF920F931F93CF93DF939A
:100A50006C017A01EB01E60EF71E00E010E0CE1506
:100A6000DF0561F06991D601ED91FC910190F08173
:100A7000E02DC6010995080F191FF1CFC801DF91BC
:100A8000CF911F910F91FF90EF90DF90CF9008953D
:100A90006115710581F0DB010D900020E9F7AD01D2
:100AA00041505109461B570BDC01ED91FC9102802E
:100AB000F381E02D099480E090E008958F929F9259
:100AC000AF92BF92CF92DF92EF92FF920F931F935C
:100AD000CF93DF93CDB7DEB7A1970FB6F894DEBF03
:100AE0000FBECDBF7C01C42EE52FCB01D22E19A2A3
:100AF00021E02D1510F02AE0D22E8E010F5D1F4F40
:100B00008D2C912CA12CB12C6C2D7E2FA501940144
:100B10000E94CC058C2DD29E801911240150110900
:100B20008A3014F4805D01C0895CF801808321154E
:100B300031054105510521F0C22EE32FCA01E4CF52
:100B4000B801C7010E944805A1960FB6F894DEBF10
:100B50000FBECDBFDF91CF911F910F91FF90EF900E
:100B6000DF90CF90BF90AF909F908F900895211508
:100B7000310541F4DC01ED91FC910190F081E02D13
:100B8000642F09940C945E059A01462F50E060E0B2
:100B900070E00C94B7050895A1E21A2EAA1BBB1BA6
:100BA000FD010DC0AA1FBB1FEE1FFF1FA217B30739
:100BB000E407F50720F0A21BB30BE40BF50B661F4F
:100BC000771F881F991F1A9469F760957095809513
:100BD00090959B01AC01BD01CF010895EE0FFF1F61
:0C0BE0000590F491E02D0994F894FFCFEB
:100BEC0000000000A403200526033F033103820309
:00000001FF
